{
  "contractName": "ItemManager",
  "abi": [
    {
      "anonymous": false,
      "inputs": [
        {
          "indexed": true,
          "internalType": "address",
          "name": "previousOwner",
          "type": "address"
        },
        {
          "indexed": true,
          "internalType": "address",
          "name": "newOwner",
          "type": "address"
        }
      ],
      "name": "OwnershipTransferred",
      "type": "event"
    },
    {
      "anonymous": false,
      "inputs": [
        {
          "indexed": false,
          "internalType": "uint256",
          "name": "_itemIndex",
          "type": "uint256"
        },
        {
          "indexed": false,
          "internalType": "uint256",
          "name": "_step",
          "type": "uint256"
        },
        {
          "indexed": false,
          "internalType": "address",
          "name": "_item",
          "type": "address"
        }
      ],
      "name": "SupplyChainStep",
      "type": "event"
    },
    {
      "inputs": [
        {
          "internalType": "uint256",
          "name": "",
          "type": "uint256"
        }
      ],
      "name": "items",
      "outputs": [
        {
          "internalType": "contract Item",
          "name": "_item",
          "type": "address"
        },
        {
          "internalType": "string",
          "name": "_identifier",
          "type": "string"
        },
        {
          "internalType": "uint256",
          "name": "_itemPrice",
          "type": "uint256"
        },
        {
          "internalType": "enum ItemManager.SupplyChainState",
          "name": "_state",
          "type": "uint8"
        }
      ],
      "stateMutability": "view",
      "type": "function"
    },
    {
      "inputs": [],
      "name": "owner",
      "outputs": [
        {
          "internalType": "address",
          "name": "",
          "type": "address"
        }
      ],
      "stateMutability": "view",
      "type": "function"
    },
    {
      "inputs": [],
      "name": "renounceOwnership",
      "outputs": [],
      "stateMutability": "nonpayable",
      "type": "function"
    },
    {
      "inputs": [
        {
          "internalType": "address",
          "name": "newOwner",
          "type": "address"
        }
      ],
      "name": "transferOwnership",
      "outputs": [],
      "stateMutability": "nonpayable",
      "type": "function"
    },
    {
      "inputs": [
        {
          "internalType": "string",
          "name": "_identifier",
          "type": "string"
        },
        {
          "internalType": "uint256",
          "name": "_itemPrice",
          "type": "uint256"
        }
      ],
      "name": "createItem",
      "outputs": [],
      "stateMutability": "nonpayable",
      "type": "function"
    },
    {
      "inputs": [
        {
          "internalType": "uint256",
          "name": "_itemIndex",
          "type": "uint256"
        }
      ],
      "name": "triggerPayment",
      "outputs": [],
      "stateMutability": "payable",
      "type": "function"
    },
    {
      "inputs": [
        {
          "internalType": "uint256",
          "name": "_itemIndex",
          "type": "uint256"
        }
      ],
      "name": "triggerDelivery",
      "outputs": [],
      "stateMutability": "nonpayable",
      "type": "function"
    }
  ],
  "bytecode": "0x608060405234801561001057600080fd5b5060006100216100c460201b60201c565b9050806000806101000a81548173ffffffffffffffffffffffffffffffffffffffff021916908373ffffffffffffffffffffffffffffffffffffffff1602179055508073ffffffffffffffffffffffffffffffffffffffff16600073ffffffffffffffffffffffffffffffffffffffff167f8be0079c531659141344cd1fd0a4f28419497f9722a3daafe3b4186f6b6457e060405160405180910390a3506100cc565b600033905090565b611526806100db6000396000f3fe6080604052600436106100705760003560e01c80638da5cb5b1161004e5780638da5cb5b1461018c578063bfb231d2146101cd578063cd31831e146102b7578063f2fde38b146102f257610070565b8063715018a614610075578063800fb83f1461008c5780638c551742146100ba575b600080fd5b34801561008157600080fd5b5061008a610343565b005b6100b8600480360360208110156100a257600080fd5b81019080803590602001909291905050506104c9565b005b3480156100c657600080fd5b5061018a600480360360408110156100dd57600080fd5b81019080803590602001906401000000008111156100fa57600080fd5b82018360208201111561010c57600080fd5b8035906020019184600183028401116401000000008311171561012e57600080fd5b91908080601f016020809104026020016040519081016040528093929190818152602001838380828437600081840152601f19601f820116905080830192505050505050509192919290803590602001909291905050506106e1565b005b34801561019857600080fd5b506101a161098a565b604051808273ffffffffffffffffffffffffffffffffffffffff16815260200191505060405180910390f35b3480156101d957600080fd5b50610206600480360360208110156101f057600080fd5b81019080803590602001909291905050506109b3565b604051808573ffffffffffffffffffffffffffffffffffffffff1681526020018060200184815260200183600281111561023c57fe5b8152602001828103825285818151815260200191508051906020019080838360005b8381101561027957808201518184015260208101905061025e565b50505050905090810190601f1680156102a65780820380516001836020036101000a031916815260200191505b509550505050505060405180910390f35b3480156102c357600080fd5b506102f0600480360360208110156102da57600080fd5b8101908080359060200190929190505050610aa8565b005b3480156102fe57600080fd5b506103416004803603602081101561031557600080fd5b81019080803573ffffffffffffffffffffffffffffffffffffffff169060200190929190505050610d1b565b005b61034b610f26565b73ffffffffffffffffffffffffffffffffffffffff1660008054906101000a900473ffffffffffffffffffffffffffffffffffffffff1673ffffffffffffffffffffffffffffffffffffffff161461040b576040517f08c379a00000000000000000000000000000000000000000000000000000000081526004018080602001828103825260208152602001807f4f776e61626c653a2063616c6c6572206973206e6f7420746865206f776e657281525060200191505060405180910390fd5b600073ffffffffffffffffffffffffffffffffffffffff1660008054906101000a900473ffffffffffffffffffffffffffffffffffffffff1673ffffffffffffffffffffffffffffffffffffffff167f8be0079c531659141344cd1fd0a4f28419497f9722a3daafe3b4186f6b6457e060405160405180910390a360008060006101000a81548173ffffffffffffffffffffffffffffffffffffffff021916908373ffffffffffffffffffffffffffffffffffffffff160217905550565b34600160008381526020019081526020016000206002015414610554576040517f08c379a000000000000000000000000000000000000000000000000000000000815260040180806020018281038252601b8152602001807f4f6e6c792066756c6c207061796d656e7473206163636570746564000000000081525060200191505060405180910390fd5b6000600281111561056157fe5b6001600083815260200190815260200160002060030160009054906101000a900460ff16600281111561059057fe5b146105e6576040517f08c379a00000000000000000000000000000000000000000000000000000000081526004018080602001828103825260288152602001806114c96028913960400191505060405180910390fd5b600180600083815260200190815260200160002060030160006101000a81548160ff0219169083600281111561061857fe5b02179055507fa4035636e99f06b7651a604c1019fa4e8779fe68ef27eeb74dff2de348f6199b816001600084815260200190815260200160002060030160009054906101000a900460ff16600281111561066e57fe5b6001600085815260200190815260200160002060000160009054906101000a900473ffffffffffffffffffffffffffffffffffffffff16604051808481526020018381526020018273ffffffffffffffffffffffffffffffffffffffff168152602001935050505060405180910390a150565b6106e9610f26565b73ffffffffffffffffffffffffffffffffffffffff1660008054906101000a900473ffffffffffffffffffffffffffffffffffffffff1673ffffffffffffffffffffffffffffffffffffffff16146107a9576040517f08c379a00000000000000000000000000000000000000000000000000000000081526004018080602001828103825260208152602001807f4f776e61626c653a2063616c6c6572206973206e6f7420746865206f776e657281525060200191505060405180910390fd5b600030826002546040516107bc90610f2e565b808473ffffffffffffffffffffffffffffffffffffffff1681526020018381526020018281526020019350505050604051809103906000f080158015610806573d6000803e3d6000fd5b5090508060016000600254815260200190815260200160002060000160006101000a81548173ffffffffffffffffffffffffffffffffffffffff021916908373ffffffffffffffffffffffffffffffffffffffff16021790555082600160006002548152602001908152602001600020600101908051906020019061088c929190610f3b565b508160016000600254815260200190815260200160002060020181905550600060016000600254815260200190815260200160002060030160006101000a81548160ff021916908360028111156108df57fe5b02179055507fa4035636e99f06b7651a604c1019fa4e8779fe68ef27eeb74dff2de348f6199b60025460016000600254815260200190815260200160002060030160009054906101000a900460ff16600281111561093957fe5b83604051808481526020018381526020018273ffffffffffffffffffffffffffffffffffffffff168152602001935050505060405180910390a1600260008154809291906001019190505550505050565b60008060009054906101000a900473ffffffffffffffffffffffffffffffffffffffff16905090565b60016020528060005260406000206000915090508060000160009054906101000a900473ffffffffffffffffffffffffffffffffffffffff1690806001018054600181600116156101000203166002900480601f016020809104026020016040519081016040528092919081815260200182805460018160011615610100020316600290048015610a855780601f10610a5a57610100808354040283529160200191610a85565b820191906000526020600020905b815481529060010190602001808311610a6857829003601f168201915b5050505050908060020154908060030160009054906101000a900460ff16905084565b610ab0610f26565b73ffffffffffffffffffffffffffffffffffffffff1660008054906101000a900473ffffffffffffffffffffffffffffffffffffffff1673ffffffffffffffffffffffffffffffffffffffff1614610b70576040517f08c379a00000000000000000000000000000000000000000000000000000000081526004018080602001828103825260208152602001807f4f776e61626c653a2063616c6c6572206973206e6f7420746865206f776e657281525060200191505060405180910390fd5b60016002811115610b7d57fe5b6001600083815260200190815260200160002060030160009054906101000a900460ff166002811115610bac57fe5b14610c1f576040517f08c379a000000000000000000000000000000000000000000000000000000000815260040180806020018281038252601f8152602001807f4974656d20687361206e6f74206265656e207061696420666f7220796574210081525060200191505060405180910390fd5b60026001600083815260200190815260200160002060030160006101000a81548160ff02191690836002811115610c5257fe5b02179055507fa4035636e99f06b7651a604c1019fa4e8779fe68ef27eeb74dff2de348f6199b816001600084815260200190815260200160002060030160009054906101000a900460ff166002811115610ca857fe5b6001600085815260200190815260200160002060000160009054906101000a900473ffffffffffffffffffffffffffffffffffffffff16604051808481526020018381526020018273ffffffffffffffffffffffffffffffffffffffff168152602001935050505060405180910390a150565b610d23610f26565b73ffffffffffffffffffffffffffffffffffffffff1660008054906101000a900473ffffffffffffffffffffffffffffffffffffffff1673ffffffffffffffffffffffffffffffffffffffff1614610de3576040517f08c379a00000000000000000000000000000000000000000000000000000000081526004018080602001828103825260208152602001807f4f776e61626c653a2063616c6c6572206973206e6f7420746865206f776e657281525060200191505060405180910390fd5b600073ffffffffffffffffffffffffffffffffffffffff168173ffffffffffffffffffffffffffffffffffffffff161415610e69576040517f08c379a00000000000000000000000000000000000000000000000000000000081526004018080602001828103825260268152602001806114a36026913960400191505060405180910390fd5b8073ffffffffffffffffffffffffffffffffffffffff1660008054906101000a900473ffffffffffffffffffffffffffffffffffffffff1673ffffffffffffffffffffffffffffffffffffffff167f8be0079c531659141344cd1fd0a4f28419497f9722a3daafe3b4186f6b6457e060405160405180910390a3806000806101000a81548173ffffffffffffffffffffffffffffffffffffffff021916908373ffffffffffffffffffffffffffffffffffffffff16021790555050565b600033905090565b6104bc80610fe783390190565b828054600181600116156101000203166002900490600052602060002090601f016020900481019282610f715760008555610fb8565b82601f10610f8a57805160ff1916838001178555610fb8565b82800160010185558215610fb8579182015b82811115610fb7578251825591602001919060010190610f9c565b5b509050610fc59190610fc9565b5090565b5b80821115610fe2576000816000905550600101610fca565b509056fe608060405234801561001057600080fd5b506040516104bc3803806104bc8339818101604052606081101561003357600080fd5b81019080805190602001909291908051906020019092919080519060200190929190505050816000819055508060028190555082600360006101000a81548173ffffffffffffffffffffffffffffffffffffffff021916908373ffffffffffffffffffffffffffffffffffffffff160217905550505050610403806100b96000396000f3fe6080604052600436106100385760003560e01c80632986c0e5146102e85780633c8da5881461031357806389794d001461033e576102d9565b366102d957600060015414610098576040517f08c379a00000000000000000000000000000000000000000000000000000000081526004018080602001828103825260238152602001806103ab6023913960400191505060405180910390fd5b346000541461010f576040517f08c379a000000000000000000000000000000000000000000000000000000000815260040180806020018281038252601b8152602001807f4f6e6c792066756c6c207061796d656e7473206163636570746564000000000081525060200191505060405180910390fd5b346001819055506000600360009054906101000a900473ffffffffffffffffffffffffffffffffffffffff1673ffffffffffffffffffffffffffffffffffffffff1634600254604051602401808281526020019150506040516020818303038152906040527f800fb83f000000000000000000000000000000000000000000000000000000007bffffffffffffffffffffffffffffffffffffffffffffffffffffffff19166020820180517bffffffffffffffffffffffffffffffffffffffffffffffffffffffff83818316178352505050506040518082805190602001908083835b6020831061021557805182526020820191506020810190506020830392506101f2565b6001836020036101000a03801982511681845116808217855250505050505090500191505060006040518083038185875af1925050503d8060008114610277576040519150601f19603f3d011682016040523d82523d6000602084013e61027c565b606091505b50509050806102d6576040517f08c379a000000000000000000000000000000000000000000000000000000000815260040180806020018281038252602f81526020018061037c602f913960400191505060405180910390fd5b50005b3480156102e557600080fd5b50005b3480156102f457600080fd5b506102fd610369565b6040518082815260200191505060405180910390f35b34801561031f57600080fd5b5061032861036f565b6040518082815260200191505060405180910390f35b34801561034a57600080fd5b50610353610375565b6040518082815260200191505060405180910390f35b60025481565b60005481565b6001548156fe54686973207472616e73616374696f6e20776173206e6f74207375636365737366756c2c2063616e63656c6c696e6754686973206974656d20686173206265656e207061696420666f7220616c7265616479a2646970667358221220f00a038a259dbb578b972f1aa652bba6d6902e699a202e1e1410b8346233d64664736f6c634300070400334f776e61626c653a206e6577206f776e657220697320746865207a65726f20616464726573734974656d206d757374206e6f74206861766520616c7265616479206265656e207061696420666f72a26469706673582212207e58df0a30b563e2f847b8c9525fbed66dc1ff74f934ca86058fe07f50724d4d64736f6c63430007040033",
  "immutableReferences": {},
  "source": "// SPDX-License-Identifier: UNKNOWN\r\npragma solidity ^0.7.4;\r\n\r\nimport \"./Ownable.sol\";\r\nimport \"./Item.sol\";\r\n\r\n/**\r\n * The ItemManager will handle item creation, as well as what supply chain state it is currently in\r\n*/\r\ncontract ItemManager is Ownable{\r\n    \r\n    // the supply chain state tells us for each ordered item, what state it is currenly in\r\n    enum SupplyChainState{Created, Paid, Delivered}\r\n        \r\n    // each item that exists will be assigned an item constructor\r\n    struct S_Item{\r\n        Item _item;\r\n        string _identifier;\r\n        uint _itemPrice;\r\n        ItemManager.SupplyChainState _state;\r\n    }\r\n    \r\n    // each item will be given a unique id, when stored in the contract, this id is the item index, which will be incremented each\r\n    // time an item is added \r\n    mapping(uint => S_Item) public items;\r\n    uint itemIndex;\r\n    \r\n    // The event that will be emitted when each item moves along our supply chain state!\r\n    event SupplyChainStep(uint _itemIndex, uint _step, address _item);\r\n    \r\n    /**\r\n     * When we create an item we will simply save it within our items mapping! \r\n     * At the given index :)\r\n    */ \r\n    function createItem(string memory _identifier, uint _itemPrice) public onlyOwner{\r\n        Item item = new Item(this, _itemPrice, itemIndex);\r\n        items[itemIndex]._item = item;\r\n        items[itemIndex]._identifier = _identifier;\r\n        items[itemIndex]._itemPrice = _itemPrice;\r\n        items[itemIndex]._state = SupplyChainState.Created;\r\n        \r\n        // emit an event that the item was Created\r\n        emit SupplyChainStep(itemIndex, uint(items[itemIndex]._state), address(item));\r\n        \r\n        // increment for the next item\r\n        itemIndex++;\r\n        \r\n    }\r\n    \r\n    function triggerPayment(uint _itemIndex) public payable {\r\n        // make sure that the amount sent is correct!!!\r\n        require(items[_itemIndex]._itemPrice == msg.value, \"Only full payments accepted\");\r\n        // make sure that the item has not been paid for yet!\r\n        require(items[_itemIndex]._state == SupplyChainState.Created, \"Item must not have already been paid for\");\r\n        \r\n        // update the items state as paid\r\n        items[_itemIndex]._state = SupplyChainState.Paid;\r\n    \r\n        // emit an event that the item was paid for\r\n        emit SupplyChainStep(_itemIndex, uint(items[_itemIndex]._state), address(items[_itemIndex]._item));\r\n        \r\n    }\r\n    \r\n    function triggerDelivery(uint _itemIndex) public onlyOwner {\r\n        // make sure that the item has been paid for\r\n        require(items[_itemIndex]._state == SupplyChainState.Paid, \"Item hsa not been paid for yet!\");\r\n        // update the item as delivered\r\n        items[_itemIndex]._state = SupplyChainState.Delivered;\r\n        \r\n        // emit an event that the item was Delivered\r\n        emit SupplyChainStep(_itemIndex, uint(items[_itemIndex]._state), address(items[_itemIndex]._item));\r\n        \r\n    }\r\n}",
  "sourcePath": "C:\\Users\\schee\\Documents\\University\\4\\FYP\\eth course\\Supply Chain Management with Ethereum\\contracts\\ItemManager.sol",
  "compiler": {
    "name": "solc",
    "version": "0.7.4+commit.3f05b770.Emscripten.clang"
  },
  "schemaVersion": "3.3.3",
  "updatedAt": "2021-01-17T15:58:54.705Z",
  "devdoc": {
    "kind": "dev",
    "methods": {
      "owner()": {
        "details": "Returns the address of the current owner."
      },
      "renounceOwnership()": {
        "details": "Leaves the contract without owner. It will not be possible to call `onlyOwner` functions anymore. Can only be called by the current owner. NOTE: Renouncing ownership will leave the contract without an owner, thereby removing any functionality that is only available to the owner."
      },
      "transferOwnership(address)": {
        "details": "Transfers ownership of the contract to a new account (`newOwner`). Can only be called by the current owner."
      }
    },
    "version": 1
  },
  "userdoc": {
    "kind": "user",
    "methods": {
      "createItem(string,uint256)": {
        "notice": "When we create an item we will simply save it within our items mapping!  At the given index :)"
      }
    },
    "notice": "The ItemManager will handle item creation, as well as what supply chain state it is currently in",
    "version": 1
  }
}